{
  "_format": "hh-sol-artifact-1",
  "contractName": "GPTStore",
  "sourceName": "contracts/GPTStore.sol",
  "abi": [
    {
      "inputs": [],
      "stateMutability": "nonpayable",
      "type": "constructor"
    },
    {
      "inputs": [
        {
          "internalType": "address",
          "name": "sender",
          "type": "address"
        },
        {
          "internalType": "uint256",
          "name": "tokenId",
          "type": "uint256"
        },
        {
          "internalType": "address",
          "name": "owner",
          "type": "address"
        }
      ],
      "name": "ERC721IncorrectOwner",
      "type": "error"
    },
    {
      "inputs": [
        {
          "internalType": "address",
          "name": "operator",
          "type": "address"
        },
        {
          "internalType": "uint256",
          "name": "tokenId",
          "type": "uint256"
        }
      ],
      "name": "ERC721InsufficientApproval",
      "type": "error"
    },
    {
      "inputs": [
        {
          "internalType": "address",
          "name": "approver",
          "type": "address"
        }
      ],
      "name": "ERC721InvalidApprover",
      "type": "error"
    },
    {
      "inputs": [
        {
          "internalType": "address",
          "name": "operator",
          "type": "address"
        }
      ],
      "name": "ERC721InvalidOperator",
      "type": "error"
    },
    {
      "inputs": [
        {
          "internalType": "address",
          "name": "owner",
          "type": "address"
        }
      ],
      "name": "ERC721InvalidOwner",
      "type": "error"
    },
    {
      "inputs": [
        {
          "internalType": "address",
          "name": "receiver",
          "type": "address"
        }
      ],
      "name": "ERC721InvalidReceiver",
      "type": "error"
    },
    {
      "inputs": [
        {
          "internalType": "address",
          "name": "sender",
          "type": "address"
        }
      ],
      "name": "ERC721InvalidSender",
      "type": "error"
    },
    {
      "inputs": [
        {
          "internalType": "uint256",
          "name": "tokenId",
          "type": "uint256"
        }
      ],
      "name": "ERC721NonexistentToken",
      "type": "error"
    },
    {
      "inputs": [],
      "name": "ReentrancyGuardReentrantCall",
      "type": "error"
    },
    {
      "anonymous": false,
      "inputs": [
        {
          "indexed": true,
          "internalType": "address",
          "name": "owner",
          "type": "address"
        },
        {
          "indexed": true,
          "internalType": "address",
          "name": "approved",
          "type": "address"
        },
        {
          "indexed": true,
          "internalType": "uint256",
          "name": "tokenId",
          "type": "uint256"
        }
      ],
      "name": "Approval",
      "type": "event"
    },
    {
      "anonymous": false,
      "inputs": [
        {
          "indexed": true,
          "internalType": "address",
          "name": "owner",
          "type": "address"
        },
        {
          "indexed": true,
          "internalType": "address",
          "name": "operator",
          "type": "address"
        },
        {
          "indexed": false,
          "internalType": "bool",
          "name": "approved",
          "type": "bool"
        }
      ],
      "name": "ApprovalForAll",
      "type": "event"
    },
    {
      "anonymous": false,
      "inputs": [
        {
          "indexed": false,
          "internalType": "uint256",
          "name": "_fromTokenId",
          "type": "uint256"
        },
        {
          "indexed": false,
          "internalType": "uint256",
          "name": "_toTokenId",
          "type": "uint256"
        }
      ],
      "name": "BatchMetadataUpdate",
      "type": "event"
    },
    {
      "anonymous": false,
      "inputs": [
        {
          "indexed": false,
          "internalType": "uint256",
          "name": "_tokenId",
          "type": "uint256"
        }
      ],
      "name": "MetadataUpdate",
      "type": "event"
    },
    {
      "anonymous": false,
      "inputs": [
        {
          "indexed": false,
          "internalType": "uint256",
          "name": "nftId",
          "type": "uint256"
        },
        {
          "indexed": true,
          "internalType": "address",
          "name": "user",
          "type": "address"
        }
      ],
      "name": "Rent",
      "type": "event"
    },
    {
      "anonymous": false,
      "inputs": [
        {
          "indexed": true,
          "internalType": "address",
          "name": "from",
          "type": "address"
        },
        {
          "indexed": true,
          "internalType": "address",
          "name": "to",
          "type": "address"
        },
        {
          "indexed": true,
          "internalType": "uint256",
          "name": "tokenId",
          "type": "uint256"
        }
      ],
      "name": "Transfer",
      "type": "event"
    },
    {
      "anonymous": false,
      "inputs": [
        {
          "indexed": true,
          "internalType": "uint256",
          "name": "tokenId",
          "type": "uint256"
        },
        {
          "indexed": true,
          "internalType": "address",
          "name": "user",
          "type": "address"
        },
        {
          "indexed": false,
          "internalType": "uint64",
          "name": "expires",
          "type": "uint64"
        }
      ],
      "name": "UpdateUser",
      "type": "event"
    },
    {
      "inputs": [
        {
          "internalType": "address",
          "name": "to",
          "type": "address"
        },
        {
          "internalType": "uint256",
          "name": "tokenId",
          "type": "uint256"
        }
      ],
      "name": "approve",
      "outputs": [],
      "stateMutability": "nonpayable",
      "type": "function"
    },
    {
      "inputs": [
        {
          "internalType": "uint256",
          "name": "",
          "type": "uint256"
        }
      ],
      "name": "assistantsGroups",
      "outputs": [
        {
          "internalType": "string",
          "name": "assistantID",
          "type": "string"
        },
        {
          "internalType": "uint256",
          "name": "pricePerHour",
          "type": "uint256"
        },
        {
          "internalType": "address",
          "name": "owner",
          "type": "address"
        }
      ],
      "stateMutability": "view",
      "type": "function"
    },
    {
      "inputs": [
        {
          "internalType": "address",
          "name": "owner",
          "type": "address"
        }
      ],
      "name": "balanceOf",
      "outputs": [
        {
          "internalType": "uint256",
          "name": "",
          "type": "uint256"
        }
      ],
      "stateMutability": "view",
      "type": "function"
    },
    {
      "inputs": [],
      "name": "blockerT",
      "outputs": [
        {
          "internalType": "uint256",
          "name": "",
          "type": "uint256"
        }
      ],
      "stateMutability": "view",
      "type": "function"
    },
    {
      "inputs": [],
      "name": "cleanUpOldRentals",
      "outputs": [],
      "stateMutability": "nonpayable",
      "type": "function"
    },
    {
      "inputs": [
        {
          "internalType": "uint256",
          "name": "tokenId",
          "type": "uint256"
        }
      ],
      "name": "extendRental",
      "outputs": [],
      "stateMutability": "payable",
      "type": "function"
    },
    {
      "inputs": [],
      "name": "getAllAssistantDetails",
      "outputs": [
        {
          "components": [
            {
              "internalType": "string",
              "name": "assistantID",
              "type": "string"
            },
            {
              "internalType": "uint256",
              "name": "pricePerHour",
              "type": "uint256"
            },
            {
              "internalType": "address",
              "name": "owner",
              "type": "address"
            }
          ],
          "internalType": "struct GPTStore.Assistant[]",
          "name": "",
          "type": "tuple[]"
        }
      ],
      "stateMutability": "view",
      "type": "function"
    },
    {
      "inputs": [
        {
          "internalType": "uint256",
          "name": "tokenId",
          "type": "uint256"
        }
      ],
      "name": "getApproved",
      "outputs": [
        {
          "internalType": "address",
          "name": "",
          "type": "address"
        }
      ],
      "stateMutability": "view",
      "type": "function"
    },
    {
      "inputs": [],
      "name": "getUserRentedAssistants",
      "outputs": [
        {
          "components": [
            {
              "internalType": "address",
              "name": "user",
              "type": "address"
            },
            {
              "internalType": "string",
              "name": "URI",
              "type": "string"
            },
            {
              "internalType": "uint64",
              "name": "expires",
              "type": "uint64"
            },
            {
              "internalType": "uint256",
              "name": "payment",
              "type": "uint256"
            },
            {
              "internalType": "uint256",
              "name": "assistantNo",
              "type": "uint256"
            },
            {
              "internalType": "uint256",
              "name": "timeRequested",
              "type": "uint256"
            }
          ],
          "internalType": "struct GPTStore.UserInfo[]",
          "name": "",
          "type": "tuple[]"
        }
      ],
      "stateMutability": "nonpayable",
      "type": "function"
    },
    {
      "inputs": [
        {
          "internalType": "address",
          "name": "owner",
          "type": "address"
        },
        {
          "internalType": "address",
          "name": "operator",
          "type": "address"
        }
      ],
      "name": "isApprovedForAll",
      "outputs": [
        {
          "internalType": "bool",
          "name": "",
          "type": "bool"
        }
      ],
      "stateMutability": "view",
      "type": "function"
    },
    {
      "inputs": [],
      "name": "maxRentalTime",
      "outputs": [
        {
          "internalType": "uint256",
          "name": "",
          "type": "uint256"
        }
      ],
      "stateMutability": "view",
      "type": "function"
    },
    {
      "inputs": [],
      "name": "minRentalTime",
      "outputs": [
        {
          "internalType": "uint256",
          "name": "",
          "type": "uint256"
        }
      ],
      "stateMutability": "view",
      "type": "function"
    },
    {
      "inputs": [],
      "name": "name",
      "outputs": [
        {
          "internalType": "string",
          "name": "",
          "type": "string"
        }
      ],
      "stateMutability": "view",
      "type": "function"
    },
    {
      "inputs": [
        {
          "internalType": "uint256",
          "name": "tokenId",
          "type": "uint256"
        }
      ],
      "name": "ownerOf",
      "outputs": [
        {
          "internalType": "address",
          "name": "",
          "type": "address"
        }
      ],
      "stateMutability": "view",
      "type": "function"
    },
    {
      "inputs": [
        {
          "internalType": "uint256",
          "name": "index",
          "type": "uint256"
        }
      ],
      "name": "removeInvalidRentedAssistant",
      "outputs": [],
      "stateMutability": "nonpayable",
      "type": "function"
    },
    {
      "inputs": [
        {
          "internalType": "uint256",
          "name": "id",
          "type": "uint256"
        }
      ],
      "name": "removeTemplate",
      "outputs": [],
      "stateMutability": "nonpayable",
      "type": "function"
    },
    {
      "inputs": [
        {
          "internalType": "uint256",
          "name": "assistantNo",
          "type": "uint256"
        }
      ],
      "name": "rent",
      "outputs": [],
      "stateMutability": "payable",
      "type": "function"
    },
    {
      "inputs": [
        {
          "internalType": "address",
          "name": "from",
          "type": "address"
        },
        {
          "internalType": "address",
          "name": "to",
          "type": "address"
        },
        {
          "internalType": "uint256",
          "name": "tokenId",
          "type": "uint256"
        }
      ],
      "name": "safeTransferFrom",
      "outputs": [],
      "stateMutability": "nonpayable",
      "type": "function"
    },
    {
      "inputs": [
        {
          "internalType": "address",
          "name": "from",
          "type": "address"
        },
        {
          "internalType": "address",
          "name": "to",
          "type": "address"
        },
        {
          "internalType": "uint256",
          "name": "tokenId",
          "type": "uint256"
        },
        {
          "internalType": "bytes",
          "name": "data",
          "type": "bytes"
        }
      ],
      "name": "safeTransferFrom",
      "outputs": [],
      "stateMutability": "nonpayable",
      "type": "function"
    },
    {
      "inputs": [
        {
          "internalType": "address",
          "name": "operator",
          "type": "address"
        },
        {
          "internalType": "bool",
          "name": "approved",
          "type": "bool"
        }
      ],
      "name": "setApprovalForAll",
      "outputs": [],
      "stateMutability": "nonpayable",
      "type": "function"
    },
    {
      "inputs": [
        {
          "internalType": "string",
          "name": "assistantId",
          "type": "string"
        },
        {
          "internalType": "uint256",
          "name": "priceHour",
          "type": "uint256"
        }
      ],
      "name": "setAssistants",
      "outputs": [],
      "stateMutability": "nonpayable",
      "type": "function"
    },
    {
      "inputs": [
        {
          "internalType": "uint256",
          "name": "time",
          "type": "uint256"
        }
      ],
      "name": "setMaxRentalTime",
      "outputs": [],
      "stateMutability": "nonpayable",
      "type": "function"
    },
    {
      "inputs": [
        {
          "internalType": "uint256",
          "name": "time",
          "type": "uint256"
        }
      ],
      "name": "setMinRentalTime",
      "outputs": [],
      "stateMutability": "nonpayable",
      "type": "function"
    },
    {
      "inputs": [
        {
          "internalType": "uint256",
          "name": "",
          "type": "uint256"
        },
        {
          "internalType": "address",
          "name": "",
          "type": "address"
        },
        {
          "internalType": "uint64",
          "name": "",
          "type": "uint64"
        }
      ],
      "name": "setUser",
      "outputs": [],
      "stateMutability": "pure",
      "type": "function"
    },
    {
      "inputs": [
        {
          "internalType": "uint256",
          "name": "tokenId",
          "type": "uint256"
        }
      ],
      "name": "stopRental",
      "outputs": [],
      "stateMutability": "nonpayable",
      "type": "function"
    },
    {
      "inputs": [
        {
          "internalType": "bytes4",
          "name": "interfaceId",
          "type": "bytes4"
        }
      ],
      "name": "supportsInterface",
      "outputs": [
        {
          "internalType": "bool",
          "name": "",
          "type": "bool"
        }
      ],
      "stateMutability": "view",
      "type": "function"
    },
    {
      "inputs": [],
      "name": "symbol",
      "outputs": [
        {
          "internalType": "string",
          "name": "",
          "type": "string"
        }
      ],
      "stateMutability": "view",
      "type": "function"
    },
    {
      "inputs": [
        {
          "internalType": "uint256",
          "name": "tokenId",
          "type": "uint256"
        }
      ],
      "name": "tokenURI",
      "outputs": [
        {
          "internalType": "string",
          "name": "",
          "type": "string"
        }
      ],
      "stateMutability": "view",
      "type": "function"
    },
    {
      "inputs": [
        {
          "internalType": "address",
          "name": "from",
          "type": "address"
        },
        {
          "internalType": "address",
          "name": "to",
          "type": "address"
        },
        {
          "internalType": "uint256",
          "name": "tokenId",
          "type": "uint256"
        }
      ],
      "name": "transferFrom",
      "outputs": [],
      "stateMutability": "nonpayable",
      "type": "function"
    },
    {
      "inputs": [
        {
          "internalType": "uint256",
          "name": "tokenId",
          "type": "uint256"
        }
      ],
      "name": "userExpires",
      "outputs": [
        {
          "internalType": "uint256",
          "name": "",
          "type": "uint256"
        }
      ],
      "stateMutability": "view",
      "type": "function"
    },
    {
      "inputs": [
        {
          "internalType": "uint256",
          "name": "tokenId",
          "type": "uint256"
        }
      ],
      "name": "userOf",
      "outputs": [
        {
          "internalType": "address",
          "name": "",
          "type": "address"
        }
      ],
      "stateMutability": "view",
      "type": "function"
    }
  ],
  "bytecode": "0x608060405260016008556001600955610708600c5562278d00600d553480156200002857600080fd5b506040518060400160405280600881526020017f47505453746f72650000000000000000000000000000000000000000000000008152506040518060400160405280600381526020017f47505400000000000000000000000000000000000000000000000000000000008152508160009081620000a6919062000384565b508060019081620000b8919062000384565b505050600160078190555033600a60006101000a81548173ffffffffffffffffffffffffffffffffffffffff021916908373ffffffffffffffffffffffffffffffffffffffff1602179055506200046b565b600081519050919050565b7f4e487b7100000000000000000000000000000000000000000000000000000000600052604160045260246000fd5b7f4e487b7100000000000000000000000000000000000000000000000000000000600052602260045260246000fd5b600060028204905060018216806200018c57607f821691505b602082108103620001a257620001a162000144565b5b50919050565b60008190508160005260206000209050919050565b60006020601f8301049050919050565b600082821b905092915050565b6000600883026200020c7fffffffffffffffffffffffffffffffffffffffffffffffffffffffffffffffff82620001cd565b620002188683620001cd565b95508019841693508086168417925050509392505050565b6000819050919050565b6000819050919050565b6000620002656200025f620002598462000230565b6200023a565b62000230565b9050919050565b6000819050919050565b620002818362000244565b6200029962000290826200026c565b848454620001da565b825550505050565b600090565b620002b0620002a1565b620002bd81848462000276565b505050565b5b81811015620002e557620002d9600082620002a6565b600181019050620002c3565b5050565b601f8211156200033457620002fe81620001a8565b6200030984620001bd565b8101602085101562000319578190505b620003316200032885620001bd565b830182620002c2565b50505b505050565b600082821c905092915050565b6000620003596000198460080262000339565b1980831691505092915050565b600062000374838362000346565b9150826002028217905092915050565b6200038f826200010a565b67ffffffffffffffff811115620003ab57620003aa62000115565b5b620003b7825462000173565b620003c4828285620002e9565b600060209050601f831160018114620003fc5760008415620003e7578287015190505b620003f3858262000366565b86555062000463565b601f1984166200040c86620001a8565b60005b8281101562000436578489015182556001820191506020850194506020810190506200040f565b8683101562000456578489015162000452601f89168262000346565b8355505b6001600288020188555050505b505050505050565b614ab0806200047b6000396000f3fe6080604052600436106101d85760003560e01c80636afe801111610102578063b88d4fde11610095578063cc505cee11610064578063cc505cee146106c1578063e030565e146106ea578063e1eb3ea914610713578063e985e9c51461072f576101d8565b8063b88d4fde146105f5578063c04d0ab71461061e578063c2f1f14a14610647578063c87b56dd14610684576101d8565b80637dbed446116100d15780637dbed4461461054d5780638fc88c481461056457806395d89b41146105a1578063a22cb465146105cc576101d8565b80636afe8011146104a2578063707c3952146104cb57806370a08231146104f45780637456be7d14610531576101d8565b806323b872dd1161017a578063543d937c11610149578063543d937c146103e45780635ebbfd471461040f5780636352211e1461043a57806367c5d1b114610477576101d8565b806323b872dd1461033c5780632ce7a0171461036557806342842e0e146103905780634aa45565146103b9576101d8565b8063095ea7b3116101b6578063095ea7b314610282578063156ecc3d146102ab578063166ce434146102d457806320f8a14d146102fd576101d8565b806301ffc9a7146101dd57806306fdde031461021a578063081812fc14610245575b600080fd5b3480156101e957600080fd5b5061020460048036038101906101ff9190613549565b61076c565b6040516102119190613591565b60405180910390f35b34801561022657600080fd5b5061022f6107e6565b60405161023c919061363c565b60405180910390f35b34801561025157600080fd5b5061026c60048036038101906102679190613694565b610878565b6040516102799190613702565b60405180910390f35b34801561028e57600080fd5b506102a960048036038101906102a49190613749565b610894565b005b3480156102b757600080fd5b506102d260048036038101906102cd9190613694565b6108aa565b005b3480156102e057600080fd5b506102fb60048036038101906102f69190613694565b610c06565b005b34801561030957600080fd5b50610324600480360381019061031f9190613694565b610c10565b60405161033393929190613798565b60405180910390f35b34801561034857600080fd5b50610363600480360381019061035e91906137d6565b610ce2565b005b34801561037157600080fd5b5061037a610de4565b6040516103879190613829565b60405180910390f35b34801561039c57600080fd5b506103b760048036038101906103b291906137d6565b610dea565b005b3480156103c557600080fd5b506103ce610e0a565b6040516103db9190613829565b60405180910390f35b3480156103f057600080fd5b506103f9610e12565b6040516104069190613a1a565b60405180910390f35b34801561041b57600080fd5b506104246110d2565b6040516104319190613b4e565b60405180910390f35b34801561044657600080fd5b50610461600480360381019061045c9190613694565b6112a8565b60405161046e9190613702565b60405180910390f35b34801561048357600080fd5b5061048c6112ba565b6040516104999190613829565b60405180910390f35b3480156104ae57600080fd5b506104c960048036038101906104c49190613694565b6112c0565b005b3480156104d757600080fd5b506104f260048036038101906104ed9190613694565b611396565b005b34801561050057600080fd5b5061051b60048036038101906105169190613b70565b6113a0565b6040516105289190613829565b60405180910390f35b61054b60048036038101906105469190613694565b61145a565b005b34801561055957600080fd5b506105626118f1565b005b34801561057057600080fd5b5061058b60048036038101906105869190613694565b61197c565b6040516105989190613829565b60405180910390f35b3480156105ad57600080fd5b506105b66119ba565b6040516105c3919061363c565b60405180910390f35b3480156105d857600080fd5b506105f360048036038101906105ee9190613bc9565b611a4c565b005b34801561060157600080fd5b5061061c60048036038101906106179190613d3e565b611a62565b005b34801561062a57600080fd5b5061064560048036038101906106409190613694565b611a7f565b005b34801561065357600080fd5b5061066e60048036038101906106699190613694565b611bc2565b60405161067b9190613702565b60405180910390f35b34801561069057600080fd5b506106ab60048036038101906106a69190613694565b611c47565b6040516106b8919061363c565b60405180910390f35b3480156106cd57600080fd5b506106e860048036038101906106e39190613e62565b611d5a565b005b3480156106f657600080fd5b50610711600480360381019061070c9190613eea565b611e66565b005b61072d60048036038101906107289190613694565b611ea1565b005b34801561073b57600080fd5b5061075660048036038101906107519190613f3d565b612207565b6040516107639190613591565b60405180910390f35b60007fad092b5c000000000000000000000000000000000000000000000000000000007bffffffffffffffffffffffffffffffffffffffffffffffffffffffff1916827bffffffffffffffffffffffffffffffffffffffffffffffffffffffff191614806107df57506107de8261229b565b5b9050919050565b6060600080546107f590613fac565b80601f016020809104026020016040519081016040528092919081815260200182805461082190613fac565b801561086e5780601f106108435761010080835404028352916020019161086e565b820191906000526020600020905b81548152906001019060200180831161085157829003601f168201915b5050505050905090565b6000610883826122fc565b5061088d82612384565b9050919050565b6108a682826108a16123c1565b6123c9565b5050565b6108b26123db565b3373ffffffffffffffffffffffffffffffffffffffff166108d282611bc2565b73ffffffffffffffffffffffffffffffffffffffff1614610928576040517f08c379a000000000000000000000000000000000000000000000000000000000815260040161091f90614029565b60405180910390fd5b6000600e600083815260200190815260200160002090506000600f60008360040154815260200190815260200160002060405180606001604052908160008201805461097390613fac565b80601f016020809104026020016040519081016040528092919081815260200182805461099f90613fac565b80156109ec5780601f106109c1576101008083540402835291602001916109ec565b820191906000526020600020905b8154815290600101906020018083116109cf57829003601f168201915b50505050508152602001600182015481526020016002820160009054906101000a900473ffffffffffffffffffffffffffffffffffffffff1673ffffffffffffffffffffffffffffffffffffffff1673ffffffffffffffffffffffffffffffffffffffff168152505090506000603c428460020160009054906101000a900467ffffffffffffffff1667ffffffffffffffff16610a899190614078565b610a939190614078565b905060008111610ad8576040517f08c379a0000000000000000000000000000000000000000000000000000000008152600401610acf906140f8565b60405180910390fd5b3373ffffffffffffffffffffffffffffffffffffffff167f381c82ace1dd48ccb61648426892270a1ceb48c6ae1f5ce2872683ec0dc0d580600854604051610b209190613829565b60405180910390a26000610e10836020015183610b3d9190614118565b610b479190614189565b905080471015610b8c576040517f08c379a0000000000000000000000000000000000000000000000000000000008152600401610b8390614206565b60405180910390fd5b3373ffffffffffffffffffffffffffffffffffffffff166108fc829081150290604051600060405180830381858888f19350505050158015610bd2573d6000803e3d6000fd5b5080846003016000828254610be79190614078565b92505081905550610bf785612421565b50505050610c036124a7565b50565b80600d8190555050565b600f602052806000526040600020600091509050806000018054610c3390613fac565b80601f0160208091040260200160405190810160405280929190818152602001828054610c5f90613fac565b8015610cac5780601f10610c8157610100808354040283529160200191610cac565b820191906000526020600020905b815481529060010190602001808311610c8f57829003601f168201915b5050505050908060010154908060020160009054906101000a900473ffffffffffffffffffffffffffffffffffffffff16905083565b600073ffffffffffffffffffffffffffffffffffffffff168273ffffffffffffffffffffffffffffffffffffffff1603610d545760006040517f64a0ae92000000000000000000000000000000000000000000000000000000008152600401610d4b9190613702565b60405180910390fd5b6000610d688383610d636123c1565b6124b1565b90508373ffffffffffffffffffffffffffffffffffffffff168173ffffffffffffffffffffffffffffffffffffffff1614610dde578382826040517f64283d7b000000000000000000000000000000000000000000000000000000008152600401610dd593929190614226565b60405180910390fd5b50505050565b600c5481565b610e0583838360405180602001604052806000815250611a62565b505050565b600042905090565b60606000601060003373ffffffffffffffffffffffffffffffffffffffff1673ffffffffffffffffffffffffffffffffffffffff16815260200190815260200160002090506000818054905067ffffffffffffffff811115610e7757610e76613c13565b5b604051908082528060200260200182016040528015610eb057816020015b610e9d6133f3565b815260200190600190039081610e955790505b5090506000805b83805490508110156110c5576000848281548110610ed857610ed761425d565b5b906000526020600020015490503373ffffffffffffffffffffffffffffffffffffffff16610f0582611bc2565b73ffffffffffffffffffffffffffffffffffffffff16036110a757600e60008281526020019081526020016000206040518060c00160405290816000820160009054906101000a900473ffffffffffffffffffffffffffffffffffffffff1673ffffffffffffffffffffffffffffffffffffffff1673ffffffffffffffffffffffffffffffffffffffff168152602001600182018054610fa490613fac565b80601f0160208091040260200160405190810160405280929190818152602001828054610fd090613fac565b801561101d5780601f10610ff25761010080835404028352916020019161101d565b820191906000526020600020905b81548152906001019060200180831161100057829003601f168201915b505050505081526020016002820160009054906101000a900467ffffffffffffffff1667ffffffffffffffff1667ffffffffffffffff16815260200160038201548152602001600482015481526020016005820154815250508484815181106110895761108861425d565b5b6020026020010181905250828061109f9061428c565b9350506110b1565b6110b0826112c0565b5b5080806110bd9061428c565b915050610eb7565b5080825281935050505090565b60606000600b8054905067ffffffffffffffff8111156110f5576110f4613c13565b5b60405190808252806020026020018201604052801561112e57816020015b61111b613449565b8152602001906001900390816111135790505b50905060005b600b805490508110156112a057600f6000600b83815481106111595761115861425d565b5b9060005260206000200154815260200190815260200160002060405180606001604052908160008201805461118d90613fac565b80601f01602080910402602001604051908101604052809291908181526020018280546111b990613fac565b80156112065780601f106111db57610100808354040283529160200191611206565b820191906000526020600020905b8154815290600101906020018083116111e957829003601f168201915b50505050508152602001600182015481526020016002820160009054906101000a900473ffffffffffffffffffffffffffffffffffffffff1673ffffffffffffffffffffffffffffffffffffffff1673ffffffffffffffffffffffffffffffffffffffff16815250508282815181106112825761128161425d565b5b602002602001018190525080806112989061428c565b915050611134565b508091505090565b60006112b3826122fc565b9050919050565b600d5481565b6000601060003373ffffffffffffffffffffffffffffffffffffffff1673ffffffffffffffffffffffffffffffffffffffff1681526020019081526020016000209050600181805490506113149190614078565b82101561136b57806001828054905061132d9190614078565b8154811061133e5761133d61425d565b5b906000526020600020015481838154811061135c5761135b61425d565b5b90600052602060002001819055505b8080548061137c5761137b6142d4565b5b600190038181906000526020600020016000905590555050565b80600c8190555050565b60008073ffffffffffffffffffffffffffffffffffffffff168273ffffffffffffffffffffffffffffffffffffffff16036114135760006040517f89c62b6400000000000000000000000000000000000000000000000000000000815260040161140a9190613702565b60405180910390fd5b600360008373ffffffffffffffffffffffffffffffffffffffff1673ffffffffffffffffffffffffffffffffffffffff168152602001908152602001600020549050919050565b6114626123db565b6000600f600083815260200190815260200160002060010154116114bb576040517f08c379a00000000000000000000000000000000000000000000000000000000081526004016114b29061434f565b60405180910390fd5b6114c36118f1565b6000600f600083815260200190815260200160002060010154610e10346114ea9190614118565b6114f49190614189565b9050600c5481101561153b576040517f08c379a0000000000000000000000000000000000000000000000000000000008152600401611532906143bb565b60405180910390fd5b600d54811115611580576040517f08c379a000000000000000000000000000000000000000000000000000000000815260040161157790614427565b60405180910390fd5b3373ffffffffffffffffffffffffffffffffffffffff167f381c82ace1dd48ccb61648426892270a1ceb48c6ae1f5ce2872683ec0dc0d5806008546040516115c89190613829565b60405180910390a2600f600083815260200190815260200160002060020160009054906101000a900473ffffffffffffffffffffffffffffffffffffffff1673ffffffffffffffffffffffffffffffffffffffff166108fc349081150290604051600060405180830381858888f1935050505015801561164c573d6000803e3d6000fd5b50611659336008546126cb565b611703600854600f6000858152602001908152602001600020600001805461168090613fac565b80601f01602080910402602001604051908101604052809291908181526020018280546116ac90613fac565b80156116f95780601f106116ce576101008083540402835291602001916116f9565b820191906000526020600020905b8154815290600101906020018083116116dc57829003601f168201915b50505050506127c4565b6000600e600060085481526020019081526020016000209050600f6000848152602001908152602001600020600001816001019081611742919061461e565b50338160000160006101000a81548173ffffffffffffffffffffffffffffffffffffffff021916908373ffffffffffffffffffffffffffffffffffffffff16021790555081426117929190614706565b8160020160006101000a81548167ffffffffffffffff021916908367ffffffffffffffff1602179055508281600401819055508181600501819055503481600301819055508060000160009054906101000a900473ffffffffffffffffffffffffffffffffffffffff1673ffffffffffffffffffffffffffffffffffffffff166008547f4e06b4e7000e659094299b3533b47b6aa8ad048e95e872d23d1f4ee55af89cfe8360020160009054906101000a900467ffffffffffffffff1660405161185c9190614749565b60405180910390a3601060003373ffffffffffffffffffffffffffffffffffffffff1673ffffffffffffffffffffffffffffffffffffffff1681526020019081526020016000206008549080600181540180825580915050600190039060005260206000200160009091909190915055600860008154809291906118df9061428c565b919050555050506118ee6124a7565b50565b6000600190505b60085481101561197957600073ffffffffffffffffffffffffffffffffffffffff1661192382611bc2565b73ffffffffffffffffffffffffffffffffffffffff161415801561194e57504261194c8261197c565b105b156119665761195c81612820565b61196581612421565b5b80806119719061428c565b9150506118f8565b50565b6000600e600083815260200190815260200160002060020160009054906101000a900467ffffffffffffffff1667ffffffffffffffff169050919050565b6060600180546119c990613fac565b80601f01602080910402602001604051908101604052809291908181526020018280546119f590613fac565b8015611a425780601f10611a1757610100808354040283529160200191611a42565b820191906000526020600020905b815481529060010190602001808311611a2557829003601f168201915b5050505050905090565b611a5e611a576123c1565b8383612959565b5050565b611a6d848484610ce2565b611a7984848484612ac8565b50505050565b600f600082815260200190815260200160002060008082016000611aa39190613480565b60018201600090556002820160006101000a81549073ffffffffffffffffffffffffffffffffffffffff02191690555050600080600090505b600b80549050811015611b295782600b8281548110611afe57611afd61425d565b5b906000526020600020015403611b1657809150611b29565b8080611b219061428c565b915050611adc565b506001600b80549050611b3c9190614078565b811015611b9657600b6001600b80549050611b579190614078565b81548110611b6857611b6761425d565b5b9060005260206000200154600b8281548110611b8757611b8661425d565b5b90600052602060002001819055505b600b805480611ba857611ba76142d4565b5b600190038181906000526020600020016000905590555050565b600042600e600084815260200190815260200160002060020160009054906101000a900467ffffffffffffffff1667ffffffffffffffff1610611c3d57600e600083815260200190815260200160002060000160009054906101000a900473ffffffffffffffffffffffffffffffffffffffff169050611c42565b600090505b919050565b6060611c52826122fc565b506000600660008481526020019081526020016000208054611c7390613fac565b80601f0160208091040260200160405190810160405280929190818152602001828054611c9f90613fac565b8015611cec5780601f10611cc157610100808354040283529160200191611cec565b820191906000526020600020905b815481529060010190602001808311611ccf57829003601f168201915b505050505090506000611cfd612c7f565b90506000815103611d12578192505050611d55565b600082511115611d47578082604051602001611d2f9291906147a0565b60405160208183030381529060405292505050611d55565b611d5084612c96565b925050505b919050565b6000633b9aca0082611d6c9190614118565b905060405180606001604052808481526020018281526020013373ffffffffffffffffffffffffffffffffffffffff16815250600f600060095481526020019081526020016000206000820151816000019081611dc991906147c4565b506020820151816001015560408201518160020160006101000a81548173ffffffffffffffffffffffffffffffffffffffff021916908373ffffffffffffffffffffffffffffffffffffffff160217905550905050600b600954908060018154018082558091505060019003906000526020600020016000909190919091505560096000815480929190611e5c9061428c565b9190505550505050565b6040517f08c379a0000000000000000000000000000000000000000000000000000000008152600401611e98906148e2565b60405180910390fd5b611ea96123db565b3373ffffffffffffffffffffffffffffffffffffffff16611ec982611bc2565b73ffffffffffffffffffffffffffffffffffffffff1614611f1f576040517f08c379a0000000000000000000000000000000000000000000000000000000008152600401611f1690614029565b60405180910390fd5b6000600e600083815260200190815260200160002090506000600f600083600401548152602001908152602001600020604051806060016040529081600082018054611f6a90613fac565b80601f0160208091040260200160405190810160405280929190818152602001828054611f9690613fac565b8015611fe35780601f10611fb857610100808354040283529160200191611fe3565b820191906000526020600020905b815481529060010190602001808311611fc657829003601f168201915b50505050508152602001600182015481526020016002820160009054906101000a900473ffffffffffffffffffffffffffffffffffffffff1673ffffffffffffffffffffffffffffffffffffffff1673ffffffffffffffffffffffffffffffffffffffff1681525050905060008160200151610e10346120639190614118565b61206d9190614189565b9050600d544261207d9190614706565b818460020160009054906101000a900467ffffffffffffffff1667ffffffffffffffff166120ab9190614706565b106120eb576040517f08c379a00000000000000000000000000000000000000000000000000000000081526004016120e29061494e565b60405180910390fd5b3373ffffffffffffffffffffffffffffffffffffffff167f381c82ace1dd48ccb61648426892270a1ceb48c6ae1f5ce2872683ec0dc0d5806008546040516121339190613829565b60405180910390a2816040015173ffffffffffffffffffffffffffffffffffffffff166108fc349081150290604051600060405180830381858888f19350505050158015612185573d6000803e3d6000fd5b50808360020160009054906101000a900467ffffffffffffffff1667ffffffffffffffff166121b49190614706565b8360020160006101000a81548167ffffffffffffffff021916908367ffffffffffffffff160217905550348360030160008282546121f29190614706565b925050819055505050506122046124a7565b50565b6000600560008473ffffffffffffffffffffffffffffffffffffffff1673ffffffffffffffffffffffffffffffffffffffff16815260200190815260200160002060008373ffffffffffffffffffffffffffffffffffffffff1673ffffffffffffffffffffffffffffffffffffffff16815260200190815260200160002060009054906101000a900460ff16905092915050565b6000634906490660e01b7bffffffffffffffffffffffffffffffffffffffffffffffffffffffff1916827bffffffffffffffffffffffffffffffffffffffffffffffffffffffff191614806122f557506122f482612cff565b5b9050919050565b60008061230883612de1565b9050600073ffffffffffffffffffffffffffffffffffffffff168173ffffffffffffffffffffffffffffffffffffffff160361237b57826040517f7e2732890000000000000000000000000000000000000000000000000000000081526004016123729190613829565b60405180910390fd5b80915050919050565b60006004600083815260200190815260200160002060009054906101000a900473ffffffffffffffffffffffffffffffffffffffff169050919050565b600033905090565b6123d68383836001612e1e565b505050565b600260075403612417576040517f3ee5aeb500000000000000000000000000000000000000000000000000000000815260040160405180910390fd5b6002600781905550565b600061243060008360006124b1565b9050600073ffffffffffffffffffffffffffffffffffffffff168173ffffffffffffffffffffffffffffffffffffffff16036124a357816040517f7e27328900000000000000000000000000000000000000000000000000000000815260040161249a9190613829565b60405180910390fd5b5050565b6001600781905550565b6000806124bd84612de1565b9050600073ffffffffffffffffffffffffffffffffffffffff168373ffffffffffffffffffffffffffffffffffffffff16146124ff576124fe818486612fe3565b5b600073ffffffffffffffffffffffffffffffffffffffff168173ffffffffffffffffffffffffffffffffffffffff161461259057612541600085600080612e1e565b6001600360008373ffffffffffffffffffffffffffffffffffffffff1673ffffffffffffffffffffffffffffffffffffffff168152602001908152602001600020600082825403925050819055505b600073ffffffffffffffffffffffffffffffffffffffff168573ffffffffffffffffffffffffffffffffffffffff1614612613576001600360008773ffffffffffffffffffffffffffffffffffffffff1673ffffffffffffffffffffffffffffffffffffffff168152602001908152602001600020600082825401925050819055505b846002600086815260200190815260200160002060006101000a81548173ffffffffffffffffffffffffffffffffffffffff021916908373ffffffffffffffffffffffffffffffffffffffff160217905550838573ffffffffffffffffffffffffffffffffffffffff168273ffffffffffffffffffffffffffffffffffffffff167fddf252ad1be2c89b69c2b068fc378daa952ba7f163c4a11628f55a4df523b3ef60405160405180910390a4809150509392505050565b600073ffffffffffffffffffffffffffffffffffffffff168273ffffffffffffffffffffffffffffffffffffffff160361273d5760006040517f64a0ae920000000000000000000000000000000000000000000000000000000081526004016127349190613702565b60405180910390fd5b600061274b838360006124b1565b9050600073ffffffffffffffffffffffffffffffffffffffff168173ffffffffffffffffffffffffffffffffffffffff16146127bf5760006040517f73c6ac6e0000000000000000000000000000000000000000000000000000000081526004016127b69190613702565b60405180910390fd5b505050565b806006600084815260200190815260200160002090816127e491906147c4565b507ff8e1a15aba9398e019f0b49df1a4fde98ee17ae345cb5f6b5e2c27f5033e8ce7826040516128149190613829565b60405180910390a15050565b600061282b82611bc2565b90506000601060008373ffffffffffffffffffffffffffffffffffffffff1673ffffffffffffffffffffffffffffffffffffffff1681526020019081526020016000209050600080600090505b82805490508110156128c357848382815481106128985761289761425d565b5b9060005260206000200154036128b0578091506128c3565b80806128bb9061428c565b915050612878565b50600182805490506128d59190614078565b81101561292c5781600183805490506128ee9190614078565b815481106128ff576128fe61425d565b5b906000526020600020015482828154811061291d5761291c61425d565b5b90600052602060002001819055505b8180548061293d5761293c6142d4565b5b6001900381819060005260206000200160009055905550505050565b600073ffffffffffffffffffffffffffffffffffffffff168273ffffffffffffffffffffffffffffffffffffffff16036129ca57816040517f5b08ba180000000000000000000000000000000000000000000000000000000081526004016129c19190613702565b60405180910390fd5b80600560008573ffffffffffffffffffffffffffffffffffffffff1673ffffffffffffffffffffffffffffffffffffffff16815260200190815260200160002060008473ffffffffffffffffffffffffffffffffffffffff1673ffffffffffffffffffffffffffffffffffffffff16815260200190815260200160002060006101000a81548160ff0219169083151502179055508173ffffffffffffffffffffffffffffffffffffffff168373ffffffffffffffffffffffffffffffffffffffff167f17307eab39ab6107e8899845ad3d59bd9653f200f220920489ca2b5937696c3183604051612abb9190613591565b60405180910390a3505050565b60008373ffffffffffffffffffffffffffffffffffffffff163b1115612c79578273ffffffffffffffffffffffffffffffffffffffff1663150b7a02612b0c6123c1565b8685856040518563ffffffff1660e01b8152600401612b2e94939291906149c3565b6020604051808303816000875af1925050508015612b6a57506040513d601f19601f82011682018060405250810190612b679190614a24565b60015b612bee573d8060008114612b9a576040519150601f19603f3d011682016040523d82523d6000602084013e612b9f565b606091505b506000815103612be657836040517f64a0ae92000000000000000000000000000000000000000000000000000000008152600401612bdd9190613702565b60405180910390fd5b805181602001fd5b63150b7a0260e01b7bffffffffffffffffffffffffffffffffffffffffffffffffffffffff1916817bffffffffffffffffffffffffffffffffffffffffffffffffffffffff191614612c7757836040517f64a0ae92000000000000000000000000000000000000000000000000000000008152600401612c6e9190613702565b60405180910390fd5b505b50505050565b606060405180602001604052806000815250905090565b6060612ca1826122fc565b506000612cac612c7f565b90506000815111612ccc5760405180602001604052806000815250612cf7565b80612cd6846130a7565b604051602001612ce79291906147a0565b6040516020818303038152906040525b915050919050565b60007f80ac58cd000000000000000000000000000000000000000000000000000000007bffffffffffffffffffffffffffffffffffffffffffffffffffffffff1916827bffffffffffffffffffffffffffffffffffffffffffffffffffffffff19161480612dca57507f5b5e139f000000000000000000000000000000000000000000000000000000007bffffffffffffffffffffffffffffffffffffffffffffffffffffffff1916827bffffffffffffffffffffffffffffffffffffffffffffffffffffffff1916145b80612dda5750612dd982613175565b5b9050919050565b60006002600083815260200190815260200160002060009054906101000a900473ffffffffffffffffffffffffffffffffffffffff169050919050565b8080612e575750600073ffffffffffffffffffffffffffffffffffffffff168273ffffffffffffffffffffffffffffffffffffffff1614155b15612f8b576000612e67846122fc565b9050600073ffffffffffffffffffffffffffffffffffffffff168373ffffffffffffffffffffffffffffffffffffffff1614158015612ed257508273ffffffffffffffffffffffffffffffffffffffff168173ffffffffffffffffffffffffffffffffffffffff1614155b8015612ee55750612ee38184612207565b155b15612f2757826040517fa9fbf51f000000000000000000000000000000000000000000000000000000008152600401612f1e9190613702565b60405180910390fd5b8115612f8957838573ffffffffffffffffffffffffffffffffffffffff168273ffffffffffffffffffffffffffffffffffffffff167f8c5be1e5ebec7d5bd14f71427d1e84f3dd0314c0f7b2291e5b200ac8c7c3b92560405160405180910390a45b505b836004600085815260200190815260200160002060006101000a81548173ffffffffffffffffffffffffffffffffffffffff021916908373ffffffffffffffffffffffffffffffffffffffff16021790555050505050565b612fee8383836131df565b6130a257600073ffffffffffffffffffffffffffffffffffffffff168373ffffffffffffffffffffffffffffffffffffffff160361306357806040517f7e27328900000000000000000000000000000000000000000000000000000000815260040161305a9190613829565b60405180910390fd5b81816040517f177e802f000000000000000000000000000000000000000000000000000000008152600401613099929190614a51565b60405180910390fd5b505050565b6060600060016130b6846132a0565b01905060008167ffffffffffffffff8111156130d5576130d4613c13565b5b6040519080825280601f01601f1916602001820160405280156131075781602001600182028036833780820191505090505b509050600082602001820190505b60011561316a578080600190039150507f3031323334353637383961626364656600000000000000000000000000000000600a86061a8153600a858161315e5761315d61415a565b5b04945060008503613115575b819350505050919050565b60007f01ffc9a7000000000000000000000000000000000000000000000000000000007bffffffffffffffffffffffffffffffffffffffffffffffffffffffff1916827bffffffffffffffffffffffffffffffffffffffffffffffffffffffff1916149050919050565b60008073ffffffffffffffffffffffffffffffffffffffff168373ffffffffffffffffffffffffffffffffffffffff161415801561329757508273ffffffffffffffffffffffffffffffffffffffff168473ffffffffffffffffffffffffffffffffffffffff16148061325857506132578484612207565b5b8061329657508273ffffffffffffffffffffffffffffffffffffffff1661327e83612384565b73ffffffffffffffffffffffffffffffffffffffff16145b5b90509392505050565b600080600090507a184f03e93ff9f4daa797ed6e38ed64bf6a1f01000000000000000083106132fe577a184f03e93ff9f4daa797ed6e38ed64bf6a1f01000000000000000083816132f4576132f361415a565b5b0492506040810190505b6d04ee2d6d415b85acef8100000000831061333b576d04ee2d6d415b85acef810000000083816133315761333061415a565b5b0492506020810190505b662386f26fc10000831061336a57662386f26fc1000083816133605761335f61415a565b5b0492506010810190505b6305f5e1008310613393576305f5e10083816133895761338861415a565b5b0492506008810190505b61271083106133b85761271083816133ae576133ad61415a565b5b0492506004810190505b606483106133db57606483816133d1576133d061415a565b5b0492506002810190505b600a83106133ea576001810190505b80915050919050565b6040518060c00160405280600073ffffffffffffffffffffffffffffffffffffffff16815260200160608152602001600067ffffffffffffffff1681526020016000815260200160008152602001600081525090565b60405180606001604052806060815260200160008152602001600073ffffffffffffffffffffffffffffffffffffffff1681525090565b50805461348c90613fac565b6000825580601f1061349e57506134bd565b601f0160209004906000526020600020908101906134bc91906134c0565b5b50565b5b808211156134d95760008160009055506001016134c1565b5090565b6000604051905090565b600080fd5b600080fd5b60007fffffffff0000000000000000000000000000000000000000000000000000000082169050919050565b613526816134f1565b811461353157600080fd5b50565b6000813590506135438161351d565b92915050565b60006020828403121561355f5761355e6134e7565b5b600061356d84828501613534565b91505092915050565b60008115159050919050565b61358b81613576565b82525050565b60006020820190506135a66000830184613582565b92915050565b600081519050919050565b600082825260208201905092915050565b60005b838110156135e65780820151818401526020810190506135cb565b60008484015250505050565b6000601f19601f8301169050919050565b600061360e826135ac565b61361881856135b7565b93506136288185602086016135c8565b613631816135f2565b840191505092915050565b600060208201905081810360008301526136568184613603565b905092915050565b6000819050919050565b6136718161365e565b811461367c57600080fd5b50565b60008135905061368e81613668565b92915050565b6000602082840312156136aa576136a96134e7565b5b60006136b88482850161367f565b91505092915050565b600073ffffffffffffffffffffffffffffffffffffffff82169050919050565b60006136ec826136c1565b9050919050565b6136fc816136e1565b82525050565b600060208201905061371760008301846136f3565b92915050565b613726816136e1565b811461373157600080fd5b50565b6000813590506137438161371d565b92915050565b600080604083850312156137605761375f6134e7565b5b600061376e85828601613734565b925050602061377f8582860161367f565b9150509250929050565b6137928161365e565b82525050565b600060608201905081810360008301526137b28186613603565b90506137c16020830185613789565b6137ce60408301846136f3565b949350505050565b6000806000606084860312156137ef576137ee6134e7565b5b60006137fd86828701613734565b935050602061380e86828701613734565b925050604061381f8682870161367f565b9150509250925092565b600060208201905061383e6000830184613789565b92915050565b600081519050919050565b600082825260208201905092915050565b6000819050602082019050919050565b613879816136e1565b82525050565b600082825260208201905092915050565b600061389b826135ac565b6138a5818561387f565b93506138b58185602086016135c8565b6138be816135f2565b840191505092915050565b600067ffffffffffffffff82169050919050565b6138e6816138c9565b82525050565b6138f58161365e565b82525050565b600060c0830160008301516139136000860182613870565b506020830151848203602086015261392b8282613890565b915050604083015161394060408601826138dd565b50606083015161395360608601826138ec565b50608083015161396660808601826138ec565b5060a083015161397960a08601826138ec565b508091505092915050565b600061399083836138fb565b905092915050565b6000602082019050919050565b60006139b082613844565b6139ba818561384f565b9350836020820285016139cc85613860565b8060005b85811015613a0857848403895281516139e98582613984565b94506139f483613998565b925060208a019950506001810190506139d0565b50829750879550505050505092915050565b60006020820190508181036000830152613a3481846139a5565b905092915050565b600081519050919050565b600082825260208201905092915050565b6000819050602082019050919050565b60006060830160008301518482036000860152613a858282613890565b9150506020830151613a9a60208601826138ec565b506040830151613aad6040860182613870565b508091505092915050565b6000613ac48383613a68565b905092915050565b6000602082019050919050565b6000613ae482613a3c565b613aee8185613a47565b935083602082028501613b0085613a58565b8060005b85811015613b3c5784840389528151613b1d8582613ab8565b9450613b2883613acc565b925060208a01995050600181019050613b04565b50829750879550505050505092915050565b60006020820190508181036000830152613b688184613ad9565b905092915050565b600060208284031215613b8657613b856134e7565b5b6000613b9484828501613734565b91505092915050565b613ba681613576565b8114613bb157600080fd5b50565b600081359050613bc381613b9d565b92915050565b60008060408385031215613be057613bdf6134e7565b5b6000613bee85828601613734565b9250506020613bff85828601613bb4565b9150509250929050565b600080fd5b600080fd5b7f4e487b7100000000000000000000000000000000000000000000000000000000600052604160045260246000fd5b613c4b826135f2565b810181811067ffffffffffffffff82111715613c6a57613c69613c13565b5b80604052505050565b6000613c7d6134dd565b9050613c898282613c42565b919050565b600067ffffffffffffffff821115613ca957613ca8613c13565b5b613cb2826135f2565b9050602081019050919050565b82818337600083830152505050565b6000613ce1613cdc84613c8e565b613c73565b905082815260208101848484011115613cfd57613cfc613c0e565b5b613d08848285613cbf565b509392505050565b600082601f830112613d2557613d24613c09565b5b8135613d35848260208601613cce565b91505092915050565b60008060008060808587031215613d5857613d576134e7565b5b6000613d6687828801613734565b9450506020613d7787828801613734565b9350506040613d888782880161367f565b925050606085013567ffffffffffffffff811115613da957613da86134ec565b5b613db587828801613d10565b91505092959194509250565b600067ffffffffffffffff821115613ddc57613ddb613c13565b5b613de5826135f2565b9050602081019050919050565b6000613e05613e0084613dc1565b613c73565b905082815260208101848484011115613e2157613e20613c0e565b5b613e2c848285613cbf565b509392505050565b600082601f830112613e4957613e48613c09565b5b8135613e59848260208601613df2565b91505092915050565b60008060408385031215613e7957613e786134e7565b5b600083013567ffffffffffffffff811115613e9757613e966134ec565b5b613ea385828601613e34565b9250506020613eb48582860161367f565b9150509250929050565b613ec7816138c9565b8114613ed257600080fd5b50565b600081359050613ee481613ebe565b92915050565b600080600060608486031215613f0357613f026134e7565b5b6000613f118682870161367f565b9350506020613f2286828701613734565b9250506040613f3386828701613ed5565b9150509250925092565b60008060408385031215613f5457613f536134e7565b5b6000613f6285828601613734565b9250506020613f7385828601613734565b9150509250929050565b7f4e487b7100000000000000000000000000000000000000000000000000000000600052602260045260246000fd5b60006002820490506001821680613fc457607f821691505b602082108103613fd757613fd6613f7d565b5b50919050565b7f43616c6c6572206973206e6f74206f776e657200000000000000000000000000600082015250565b60006140136013836135b7565b915061401e82613fdd565b602082019050919050565b6000602082019050818103600083015261404281614006565b9050919050565b7f4e487b7100000000000000000000000000000000000000000000000000000000600052601160045260246000fd5b60006140838261365e565b915061408e8361365e565b92508282039050818111156140a6576140a5614049565b5b92915050565b7f52656e74616c2068617320616c72656164792065787069726564000000000000600082015250565b60006140e2601a836135b7565b91506140ed826140ac565b602082019050919050565b60006020820190508181036000830152614111816140d5565b9050919050565b60006141238261365e565b915061412e8361365e565b925082820261413c8161365e565b9150828204841483151761415357614152614049565b5b5092915050565b7f4e487b7100000000000000000000000000000000000000000000000000000000600052601260045260246000fd5b60006141948261365e565b915061419f8361365e565b9250826141af576141ae61415a565b5b828204905092915050565b7f496e73756666696369656e7420636f6e74726163742062616c616e6365000000600082015250565b60006141f0601d836135b7565b91506141fb826141ba565b602082019050919050565b6000602082019050818103600083015261421f816141e3565b9050919050565b600060608201905061423b60008301866136f3565b6142486020830185613789565b61425560408301846136f3565b949350505050565b7f4e487b7100000000000000000000000000000000000000000000000000000000600052603260045260246000fd5b60006142978261365e565b91507fffffffffffffffffffffffffffffffffffffffffffffffffffffffffffffffff82036142c9576142c8614049565b5b600182019050919050565b7f4e487b7100000000000000000000000000000000000000000000000000000000600052603160045260246000fd5b7f417373697374616e742074656d706c617465206e6f7420666f756e6400000000600082015250565b6000614339601c836135b7565b915061434482614303565b602082019050919050565b600060208201905081810360008301526143688161432c565b9050919050565b7f4d696e696d756d2072656e74616c2074696d65206e6f74206d65740000000000600082015250565b60006143a5601b836135b7565b91506143b08261436f565b602082019050919050565b600060208201905081810360008301526143d481614398565b9050919050565b7f4578636565646564206d6178696d756d2072656e74616c2074696d6500000000600082015250565b6000614411601c836135b7565b915061441c826143db565b602082019050919050565b6000602082019050818103600083015261444081614404565b9050919050565b60008154905061445681613fac565b9050919050565b60008190508160005260206000209050919050565b60008190508160005260206000209050919050565b60006020601f8301049050919050565b600082821b905092915050565b6000600883026144d47fffffffffffffffffffffffffffffffffffffffffffffffffffffffffffffffff82614497565b6144de8683614497565b95508019841693508086168417925050509392505050565b6000819050919050565b600061451b6145166145118461365e565b6144f6565b61365e565b9050919050565b6000819050919050565b61453583614500565b61454961454182614522565b8484546144a4565b825550505050565b600090565b61455e614551565b61456981848461452c565b505050565b5b8181101561458d57614582600082614556565b60018101905061456f565b5050565b601f8211156145d2576145a38161445d565b6145ac84614487565b810160208510156145bb578190505b6145cf6145c785614487565b83018261456e565b50505b505050565b600082821c905092915050565b60006145f5600019846008026145d7565b1980831691505092915050565b600061460e83836145e4565b9150826002028217905092915050565b81810361462c575050614704565b61463582614447565b67ffffffffffffffff81111561464e5761464d613c13565b5b6146588254613fac565b614663828285614591565b6000601f8311600181146146925760008415614680578287015490505b61468a8582614602565b8655506146fd565b601f1984166146a087614472565b96506146ab8661445d565b60005b828110156146d3578489015482556001820191506001850194506020810190506146ae565b868310156146f057848901546146ec601f8916826145e4565b8355505b6001600288020188555050505b5050505050505b565b60006147118261365e565b915061471c8361365e565b925082820190508082111561473457614733614049565b5b92915050565b614743816138c9565b82525050565b600060208201905061475e600083018461473a565b92915050565b600081905092915050565b600061477a826135ac565b6147848185614764565b93506147948185602086016135c8565b80840191505092915050565b60006147ac828561476f565b91506147b8828461476f565b91508190509392505050565b6147cd826135ac565b67ffffffffffffffff8111156147e6576147e5613c13565b5b6147f08254613fac565b6147fb828285614591565b600060209050601f83116001811461482e576000841561481c578287015190505b6148268582614602565b86555061488e565b601f19841661483c8661445d565b60005b828110156148645784890151825560018201915060208501945060208101905061483f565b86831015614881578489015161487d601f8916826145e4565b8355505b6001600288020188555050505b505050505050565b7f63616e6e6f74206368616e676520757365720000000000000000000000000000600082015250565b60006148cc6012836135b7565b91506148d782614896565b602082019050919050565b600060208201905081810360008301526148fb816148bf565b9050919050565b7f4d61782072656e74616c2074696d652065786365656465640000000000000000600082015250565b60006149386018836135b7565b915061494382614902565b602082019050919050565b600060208201905081810360008301526149678161492b565b9050919050565b600081519050919050565b600082825260208201905092915050565b60006149958261496e565b61499f8185614979565b93506149af8185602086016135c8565b6149b8816135f2565b840191505092915050565b60006080820190506149d860008301876136f3565b6149e560208301866136f3565b6149f26040830185613789565b8181036060830152614a04818461498a565b905095945050505050565b600081519050614a1e8161351d565b92915050565b600060208284031215614a3a57614a396134e7565b5b6000614a4884828501614a0f565b91505092915050565b6000604082019050614a6660008301856136f3565b614a736020830184613789565b939250505056fea2646970667358221220911d0de99c642304b980fe2a3b6ffbdd4e32e0e777493f562fba16754b1853f564736f6c63430008140033",
  "linkReferences": {},
  "deployedLinkReferences": {}
}